:100000000C9434000C943E000C943E000C943E0082
:100010000C943E000C943E000C943E000C943E0068
:100020000C943E000C943E000C943E000C943E0058
:100030000C943E000C943E000C943E000C943E0048
:100040000C943E000C943E000C943E000C943E0038
:100050000C943E000C943E000C943E000C943E0028
:100060000C943E000C943E0011241FBECFEFD8E04C
:10007000DEBFCDBF0E9440000C94C1000C94000074
:10008000579A28D038D008D0299A5F985CD0299800
:1000900006D046D066D0F8CF219A2098089540E047
:1000A0004093800045EC4093810056B355FFFDCF4F
:1000B0000091860056BB45E84093810056B355FF3A
:1000C000FDCFC0918600C01B56BBCE3014F45F9AA2
:1000D00052D008951CE214B911E51CBD1AE028E0C5
:1000E00014D019E020E311D01BE027E00ED01CE073
:1000F00021E00BD0089513E02DE007D012E025E2B7
:1001000004D011E025E201D008952A981EBD3DB526
:1001100037FFFDCF2EBD3DB537FFFDCF2A9A08959D
:10012000AA27BB27C4361AF0A395C456FBCFCA3002
:100130001AF0B395CA50FBCF2B2F16E0E6DF2C2F19
:1001400015E0E3DF0895442746BD44E147BD4AE09A
:1001500045BD45B341FFFDCF442745BD42E045BB0A
:1001600008955FEF6FEF72E37A95F1F76A95D9F72B
:100170005A95C1F708951FE020EA21501040E9F791
:060180000895F894FFCF82
:00000001FF
